:020000040800F2
:1000000000040020390200083B0200083A02000800
:100010003A0200083A0200083A0200083A020008D0
:100020003A0200083A0200083A020008A12B000830
:100030003A0200083A0200083A0200083A020008B0
:100040003A0200083A0200083A0200083A020008A0
:100050003A0200083A0200083A0200083A02000890
:100060003A0200083A0200083A020008B11A0008F1
:10007000F11A0008311B0008711B0008B11B0008B1
:10008000F11B0008311C00083A020008A116000804
:100090001117000881170008F11700083A0200083C
:1000A0003A0200083A0200083A0200083A02000840
:1000B000311E00083A0200083A0200083A0200081D
:1000C0003A0200083A0200083A0200083A02000820
:1000D0003A0200083A020008C11F00083A0200086C
:1000E0003A0200083A0200083A0200083A02000800
:1000F0003A0200083A0200083A0200083A020008F0
:100100003A0200083A0200083A0200083A020008DF
:100110003A0200083A0200083A0200083A020008CF
:100120003A0200083A0200083A0200083A020008BF
:100130003A0200083A0200083A0200083A020008AF
:100140003A0200083A0200083A0200083A0200089F
:100150003A0200083A0200083A0200083A0200088F
:1001600072B6274880F30888264880F30988264815
:100170004EF60851CEF200010860022080F3148888
:10018000BFF36F8F00F0ECFF02F022F84FF0553014
:100190001E491B4A91423CBF41F8040BFAE71C4937
:1001A000184A91423CBF41F8040BFAE719491A4A30
:1001B0001A4B9A423EBF51F8040B42F8040BF8E781
:1001C00000201749174A91423CBF41F8040BFAE757
:1001D00000F0DEFF00F0CCFF134C144DAC4203DA0C
:1001E00054F8041B8847F9E702F07AFD104C114DD2
:1001F000AC4203DA54F8041B8847F9E700F0C0BFAB
:10020000000400200008002000000008000000207A
:1002100000040020F0350008000800202408002019
:100220002808002000140020600100086001000878
:10023000600100086001000892E700F000F8FEE7A6
:100240002DE9F04FC1F80CD0C3689D46BDE8F08F92
:10025000002383F311882846A047002002F008FB02
:1002600002F026FA00DFFEE781F0004102E000BF65
:1002700083F0004330B54FEA41044FEA430594EA66
:10028000050F08BF90EA020F1FBF54EA000C55EAA1
:10029000020C7FEA645C7FEA655C00F0E2804FEA72
:1002A0005454D4EB5555B8BF6D420CDD2C4480EA54
:1002B000020281EA030382EA000083EA010180EA84
:1002C000020281EA0303362D88BF30BD11F0004FD2
:1002D0004FEA01314FF4801C4CEA113102D0404208
:1002E00061EB410113F0004F4FEA03334CEA133343
:1002F00002D0524263EB430394EA050F00F0A7805B
:10030000A4F10104D5F1200E0DDB02FA0EFC22FA55
:1003100005F2801841F1000103FA0EF2801843FA49
:1003200005F359410EE0A5F120050EF1200E012A3A
:1003300003FA0EFC28BF4CF0020C43FA05F3C01878
:1003400051EBE37101F0004507D54FF0000EDCF1F1
:10035000000C7EEB00006EEB0101B1F5801F1BD39A
:10036000B1F5001F0CD349085FEA30004FEA3C0C9E
:1003700004F101044FEA445212F5800F80F09A8094
:10038000BCF1004F08BF5FEA500C50F1000041EB98
:10039000045141EA050130BD5FEA4C0C404141EB9C
:1003A000010111F4801FA4F10104E9D191F0000FC3
:1003B00004BF01460020B1FA81F308BF2033A3F146
:1003C0000B03B3F120020CDA0C3208DD02F1140C3D
:1003D000C2F10C0201FA0CF021FA02F10CE002F178
:1003E0001402D8BFC2F1200C01FA02F120FA0CFC71
:1003F000DCBF41EA0C019040E41AA2BF01EB0451BA
:10040000294330BD6FEA04041F3C1CDA0C340EDCB7
:1004100004F11404C4F1200220FA04F001FA02F3FA
:1004200040EA030021FA04F345EA030130BDC4F1B8
:100430000C04C4F1200220FA02F001FA04F340EAAD
:100440000300294630BD21FA04F0294630BD94F05E
:10045000000F83F4801306BF81F480110134013D45
:100460004EE77FEA645C18BF7FEA655C29D094EAB6
:10047000050F08BF90EA020F05D054EA000C04BF34
:100480001946104630BD91EA030F1EBF002100201F
:1004900030BD5FEA545C05D14000494128BF41F0BE
:1004A000004130BD14F580043CBF01F5801130BD22
:1004B00001F0004545F0FE4141F470014FF00000AD
:1004C00030BD7FEA645C1ABF194610467FEA655C5E
:1004D0001CBF0B46024650EA013406BF52EA033500
:1004E00091EA030F41F4002130BD00BF90F0000FEE
:1004F00004BF0021704730B54FF4806404F132042A
:100500004FF000054FF0000150E700BF90F0000FE2
:1005100004BF0021704730B54FF4806404F1320409
:1005200010F0004548BF40424FF000013EE700BFD9
:1005300042004FEAE2014FEA31014FEA02701FBF69
:1005400012F07F4393F07F4F81F06051704732F09B
:100550007F4208BF704793F07F4F04BF41F40021F2
:10056000704730B54FF4607401F0004521F0004150
:100570001CE700BF50EA010208BF704730B54FF0DA
:1005800000050AE050EA010208BF704730B511F0DB
:10059000004502D5404261EB41014FF4806404F113
:1005A00032045FEA915C3FF4D8AE4FF003025FEA99
:1005B000DC0C18BF03325FEADC0C18BF033202EB1D
:1005C000DC02C2F1200300FA03FC20FA02F001FA77
:1005D00003FE40EA0E0021FA02F11444BDE600BF1A
:1005E00070B54FF0FF0C4CF4E06C1CEA11541DBFC9
:1005F0001CEA135594EA0C0F95EA0C0F00F0DEF894
:100600002C4481EA030621EA4C5123EA4C5350EA78
:10061000013518BF52EA033541F4801143F48013C9
:1006200038D0A0FB02CE4FF00005E1FB02E506F05A
:100630000042E0FB03E54FF00006E1FB03569CF0AF
:10064000000F18BF4EF0010EA4F1FF04B6F5007FB5
:1006500064F5407404D25FEA4E0E6D4146EB060627
:1006600042EAC62141EA55514FEAC52040EA5E50B0
:100670004FEACE2EB4F1FD0C88BFBCF5E06F1ED85A
:10068000BEF1004F08BF5FEA500E50F1000041EB91
:10069000045170BD06F0004646EA010140EA02003E
:1006A00081EA0301B4EB5C04C2BFD4EB0C0541EA60
:1006B000045170BD41F480114FF0000E013C00F375
:1006C000AB8014F1360FDEBF002001F0004170BD99
:1006D000C4F10004203C35DA0C341BDC04F11404B2
:1006E000C4F1200500FA05F320FA04F001FA05F23E
:1006F00040EA020001F0004221F0004110EBD3700B
:1007000021FA04F642EB06015EEA430E08BF20EA36
:10071000D37070BDC4F10C04C4F1200500FA04F3D9
:1007200020FA05F001FA04F240EA020001F000416B
:1007300010EBD37041F100015EEA430E08BF20EADE
:10074000D37070BDC4F1200500FA05F24EEA020E26
:1007500020FA04F301FA05F243EA020321FA04F055
:1007600001F0004121FA04F220EA020000EBD3700C
:100770005EEA430E08BF20EAD37070BD94F0000F0C
:100780000FD101F00046400041EB010111F4801F40
:1007900008BF013CF7D041EA060195F0000F18BFF1
:1007A000704703F00046520043EB030313F4801F2D
:1007B00008BF013DF7D043EA0603704794EA0C0FE7
:1007C0000CEA135518BF95EA0C0F0CD050EA4106FD
:1007D00018BF52EA4306D1D181EA030101F000417A
:1007E0004FF0000070BD50EA410606BF10461946A2
:1007F00052EA430619D094EA0C0F02D150EA0136AE
:1008000013D195EA0C0F05D152EA03361CBF1046EE
:1008100019460AD181EA030101F0004141F0FE418D
:1008200041F470014FF0000070BD41F0FE4141F411
:10083000780170BD70B54FF0FF0C4CF4E06C1CEA11
:1008400011541DBF1CEA135594EA0C0F95EA0C0FC6
:1008500000F0A7F8A4EB050481EA030E52EA033581
:100860004FEA013100F088804FEA03334FF08055A2
:1008700045EA131343EA12634FEA022245EA1115CF
:1008800045EA10654FEA00260EF000419D4208BF80
:10089000964244F1FD0404F5407402D25B084FEA2D
:1008A0003202B61A65EB03055B084FEA32024FF4D9
:1008B00080104FF4002CB6EB020E75EB030E22BF36
:1008C000B61A754640EA0C005B084FEA3202B6EBF6
:1008D000020E75EB030E22BFB61A754640EA5C00A5
:1008E0005B084FEA3202B6EB020E75EB030E22BF35
:1008F000B61A754640EA9C005B084FEA3202B6EB36
:10090000020E75EB030E22BFB61A754640EADC00F4
:1009100055EA060E18D04FEA051545EA16754FEA56
:1009200006164FEAC30343EA52734FEAC2025FEA74
:100930001C1CC0D111F4801F0BD141EA00014FF003
:1009400000004FF0004CB6E711F4801F04BF0143D4
:100950000020B4F1FD0C88BFBCF5E06F3FF6AFAEF0
:10096000B5EB030C04BFB6EB020C5FEA500C50F180
:10097000000041EB045170BD0EF0004E4EEA113103
:1009800014EB5C04C2BFD4EB0C0541EA045170BD0A
:1009900041F480114FF0000E013C90E645EA060E4E
:1009A0008DE60CEA135594EA0C0F08BF95EA0C0F7C
:1009B0003FF43BAF94EA0C0F0AD150EA01347FF4C4
:1009C00034AF95EA0C0F7FF425AF104619462CE79B
:1009D00095EA0C0F06D152EA03353FF4FDAE1046FE
:1009E000194622E750EA410618BF52EA43067FF44F
:1009F000C5AE50EA41047FF40DAF52EA43057FF4DF
:100A0000EBAE12E74FF0FF3C06E000BF4FF0010CE9
:100A100002E000BF4FF0010C4DF804CD4FEA410C4D
:100A20007FEA6C5C4FEA430C18BF7FEA6C5C1BD01A
:100A300001B050EA410C0CBF52EA430C91EA030F9B
:100A400002BF90EA020F0020704710F1000F91EAF8
:100A5000030F58BF994208BF90422CBFD8176FEAC6
:100A6000E37040F0010070474FEA410C7FEA6C5C94
:100A700002D150EA013C07D14FEA430C7FEA6C5C9B
:100A8000D6D152EA033CD3D05DF8040B704700BFC7
:100A90008446104662468C461946634600E000BF15
:100AA00001B5FFF7B7FF002848BF10F1000F01BDE7
:100AB0004DF808EDFFF7F4FF0CBF012000205DF8B2
:100AC00008FB00BF4DF808EDFFF7EAFF34BF012037
:100AD00000205DF808FB00BF4DF808EDFFF7E0FFD0
:100AE00094BF012000205DF808FB00BF4DF808ED21
:100AF000FFF7CEFF94BF012000205DF808FB00BF88
:100B00004DF808EDFFF7C4FF34BF012000205DF869
:100B100008FB00BF4FEA410212F5001215D211D5B1
:100B20006FF47873B3EB625212D94FEAC12343F0EA
:100B3000004343EA505311F0004F23FA02F018BF6C
:100B4000404270474FF00000704750EA013005D135
:100B500011F0004008BF6FF0004070474FF00000F8
:100B6000704700BF80F0004002E000BF81F000410C
:100B700042001FBF5FEA410392EA030F7FEA226C43
:100B80007FEA236C6AD04FEA1262D2EB1363C1BFD3
:100B9000D218414048404140B8BF5B42192B88BF42
:100BA000704710F0004F40F4000020F07F4018BF65
:100BB000404211F0004F41F4000121F07F4118BF85
:100BC000494292EA030F3FD0A2F1010241FA03FC2D
:100BD00010EB0C00C3F1200301FA03F100F0004315
:100BE00002D5494260EB4000B0F5000F13D3B0F1DD
:100BF000807F06D340084FEA310102F10102FE2A4C
:100C000051D2B1F1004F40EBC25008BF20F00100BB
:100C100040EA03007047490040EB000010F4000F69
:100C2000A2F10102EDD1B0FA80FCACF1080CB2EBFC
:100C30000C0200FA0CF0AABF00EBC250524218435B
:100C4000BCBFD0401843704792F0000F81F4000100
:100C500006BF80F400000132013BB5E74FEA4103D3
:100C60007FEA226C18BF7FEA236C21D092EA030F3F
:100C700004D092F0000F08BF0846704790EA010FB9
:100C80001CBF0020704712F07F4F04D1400028BFE6
:100C900040F00040704712F100723CBF00F50000C8
:100CA000704700F0004343F0FE4040F400007047FE
:100CB0007FEA226216BF08467FEA236301464202AA
:100CC00006BF5FEA412390EA010F40F480007047BD
:100CD0004FF0000304E000BF10F0004348BF404263
:100CE0005FEA000C08BF704743F0964301464FF09F
:100CF00000001CE050EA010208BF70474FF00003FB
:100D00000AE000BF50EA010208BF704711F000433B
:100D100002D5404261EB41015FEA010C02BF84460B
:100D20000146002043F0B64308BFA3F18053A3F56A
:100D30000003BCFA8CF2083AA3EBC25310DB01FAB1
:100D400002FC634400FA02FCC2F12002BCF1004F35
:100D500020FA02F243EB020008BF20F001007047C6
:100D600002F1200201FA02FCC2F1200250EA4C001A
:100D700021FA02F243EB020008BF20EADC70704760
:100D80004FF0FF0C1CEAD0521EBF1CEAD15392EA6E
:100D90000C0F93EA0C0F6FD01A4480EA010C40024A
:100DA00018BF5FEA41211ED04FF0006343EA5010A4
:100DB00043EA5111A0FB01310CF00040B1F5000FE6
:100DC0003EBF490041EAD3715B0040EA010062F195
:100DD0007F02FD2A1DD8B3F1004F40EBC25008BF7F
:100DE00020F00100704790F0000F0CF0004C08BF9D
:100DF00049024CEA502040EA51207F3AC2BFD2F16A
:100E0000FF0340EAC250704740F400004FF0000377
:100E1000013A5DDC12F1190FDCBF00F000407047B1
:100E2000C2F10002410021FA02F1C2F1200200FAEF
:100E300002FC5FEA310040F1000053EA4C0308BFB6
:100E400020EADC70704792F0000F00F0004C02BF07
:100E5000400010F4000F013AF9D040EA0C0093F082
:100E6000000F01F0004C02BF490011F4000F013BDC
:100E7000F9D041EA0C018FE70CEAD15392EA0C0F4A
:100E800018BF93EA0C0F0AD030F0004C18BF31F0B5
:100E9000004CD8D180EA010000F00040704790F08B
:100EA000000F17BF90F0004F084691F0000F91F02F
:100EB000004F14D092EA0C0F01D142020FD193EAF5
:100EC0000C0F03D14B0218BF084608D180EA01007D
:100ED00000F0004040F0FE4040F40000704740F059
:100EE000FE4040F4400070474FF0FF0C1CEAD05227
:100EF0001EBF1CEAD15392EA0C0F93EA0C0F69D083
:100F0000A2EB030280EA010C49024FEA402037D0ED
:100F10004FF0805343EA111143EA10130CF00040E4
:100F20008B4238BF5B0042F17D024FF4000C8B42D4
:100F300024BF5B1A40EA0C00B3EB510F24BFA3EBB4
:100F4000510340EA5C00B3EB910F24BFA3EB910384
:100F500040EA9C00B3EBD10F24BFA3EBD10340EADE
:100F6000DC001B0118BF5FEA1C1CE0D1FD2A3FF624
:100F700050AF8B4240EBC25008BF20F001007047D9
:100F80000CF0004C4CEA50207F32C2BFD2F1FF037C
:100F900040EAC250704740F400004FF00003013AAD
:100FA00037E792F0000F00F0004C02BF400010F451
:100FB000000F013AF9D040EA0C0093F0000F01F065
:100FC000004C02BF490011F4000F013BF9D041EA87
:100FD0000C0195E70CEAD15392EA0C0F08D14202BA
:100FE0007FF47DAF93EA0C0F7FF470AF084676E78D
:100FF00093EA0C0F04D14B023FF44CAF08466EE766
:1010000030F0004C18BF31F0004CCAD130F0004233
:101010007FF45CAF31F000437FF43CAF5FE700BF8B
:101020004FF0FF3C06E000BF4FF0010C02E000BFB4
:101030004FF0010C4DF804CD4FEA40024FEA410356
:101040007FEA226C18BF7FEA236C11D001B052EA0C
:10105000530C18BF90EA010F58BFB2EB030088BFD2
:10106000C81738BF6FEAE17018BF40F00100704741
:101070007FEA226C02D15FEA402C05D17FEA236C23
:10108000E4D15FEA412CE1D05DF8040B704700BF6A
:10109000844608466146FFE70FB5FFF7C9FF002801
:1010A00048BF10F1000F0FBD4DF808EDFFF7F4FF3A
:1010B0000CBF012000205DF808FB00BF4DF808EDD3
:1010C000FFF7EAFF34BF012000205DF808FB00BFF6
:1010D0004DF808EDFFF7E0FF94BF012000205DF818
:1010E00008FB00BF4DF808EDFFF7D2FF94BF0120C9
:1010F00000205DF808FB00BF4DF808EDFFF7C8FFC2
:1011000034BF012000205DF808FB00BF4FEA400219
:10111000B2F1FE4F0FD34FF09E03B3EB12620DD925
:101120004FEA002343F0004310F0004F23FA02F08F
:1011300018BF404270474FF00000704712F1610F36
:1011400001D1420205D110F0004008BF6FF000400D
:1011500070474FF0000070470000000000000000E2
:10116000704700BF00000000000000000000000009
:10117000704700BF000000000000000000000000F9
:10118000FEE700BF000000000000000000000000BB
:10119000F0B40027134E144D144C154B154906F1AD
:1011A000700C9C4211D91A46043951F8040F42F8C8
:1011B000040B9442F9D8DA43144424F003040434B1
:1011C00023449D4203D943F8047B9D42FBD86645E6
:1011D00005D0D6E90413D6E906451036E1E7F0BCA0
:1011E000704700BF403400080014002000140020A5
:1011F0000014002014360008000000000000000069
:1012000008B500F05DF9064800F0DAFD00F030F8AE
:1012100000F0B6F800F0E4FFBDE8084000F008B8C0
:101220003C35000800000000000000000000000045
:1012300000F016BE000000000000000000000000EA
:101240004FF080430021022258631961DA60704731
:101250004FF080430022DA60704700BF00000000BA
:101260004FF080435863704700000000000000000A
:1012700000F0EEBA000000000000000000000000D6
:1012800030B40021012400F1180200F11C0300F128
:1012900020050470416000F1240400F128018261FE
:1012A000C36100F1080200F11003C0E9085430BC2A
:1012B0008162C0E90222C0E90433704700000000E7
:1012C00010B52023044683F3118802234160037084
:1012D00000F0E6FA03220023227083F3118810BD88
:1012E0002DE9F0411E4604460F469046202383F325
:1012F000118800F108052378042B04D039462046D4
:1013000000F0F6FA50B93146284601F0E9FA002813
:10131000F1D0002383F31188BDE8F08120464246D6
:10132000394600F005FB002080F31188BDE8F0810C
:101330002DE9F0411E4604460F469046202383F3D4
:10134000118800F110052378042B04D0394620467B
:1013500000F026FB50B93146284601F0C1FA0028BA
:10136000F1D0002383F31188BDE8F0812046424686
:10137000394600F035FB002080F31188BDE8F0818C
:1013800000F05EBE00000000000000000000000051
:10139000002301224370027083704360704700BFD6
:1013A00010B52023044683F31188416000F060FEED
:1013B00002220023227083F3118810BD0000000078
:1013C00010B52023044683F3118800F0C9FE0122E2
:1013D0000023A27083F3118810BD00BF000000003D
:1013E000202282F311888278012A05D04FF0FF3045
:1013F000002383F31188704710B5044600F0C8FE3F
:101400000023A370002383F3118810BD00000000A7
:101410000122430910B49B0000F16044090104F566
:10142000614403F1604300F01F00C9B284F8001367
:1014300003F5614302FA00F0C3F8800110BC1860A4
:10144000704700BF00000000000000000000000026
:10145000012230B40024064900F01F054309AA40C8
:101460002033084441F8232080F8004330BC704703
:1014700000E100E0000000000000000000000000AB
:10148000062108B50846FFF7C3FF06210720FFF72E
:10149000BFFF06210820FFF7BBFF06210920FFF749
:1014A000B7FF06210A20FFF7B3FF06211720FFF739
:1014B000AFFFBDE8084006212820FFF7A9BF00BF05
:1014C0004FF0FF300022104B10B51C6918611C69E9
:1014D0001A611C69DC68D860D868DA60DA68DA6991
:1014E0000A4942F08052DA61DA69DA6942F0006250
:1014F000DA61DB690B6843F480730B6000F0B8FBC2
:10150000BDE81040FFF7BCBF001002400070004073
:101510001B4B1A46196841F00101196013689807BE
:10152000FCD500201368164903F0F90313605060DE
:101530004B6813F00C0FFBD10B68114A43F4803356
:101540000B6013689903FCD553680D4943F4E81305
:101550005360136843F0807313600B689B01FCD5E4
:101560001222084B084848601A604B68044A43F04E
:1015700002034B60536803F00C03082BFAD1704749
:10158000001002400020024000641D000000000026
:10159000F0B43F4C3F4BE569DB6A45F00075E5610F
:1015A000E4693D4ED3F80052354045F00105C3F8DB
:1015B0000052D3F80042344044F0010444EA0024CD
:1015C000C3F80042002947D0002420462546C3F82E
:1015D0001C42C3F80442C3F80C42C3F8144203EBA4
:1015E000C00401300E28C4F84052C4F84452F6D169
:1015F000002601279478108814F0010F03EBC00532
:1016000006F1010607FA00F005D0D3F804C240EA5B
:101610000C0CC3F804C214F0020F05D0D3F80CC2AE
:1016200040EA0C0CC3F80CC2640704D5D3F814428A
:101630000443C3F814425468B142C5F84042946868
:1016400002F10C02C5F84442D3F81C4240EA0400FF
:10165000C3F81C02CED10CE00122C3F84012C3F83B
:101660004412C3F80412C3F81412C3F80C22C3F8CE
:101670001C22D3F80012064A21F00101C3F800121F
:10168000D369F0BC23F00073D361D369704700BF06
:1016900000100240280800200000FFFF00000000AA
:1016A000184B10B5DA6A936813F00104936005D003
:1016B00013F00C0F14BF4FF480340124D90506D564
:1016C00013F4406F14BF44F4003444F00204DA030E
:1016D00006D513F4402F14BF44F4802444F00404CE
:1016E000202383F311880021074801F011F92146D6
:1016F000064801F075F9002383F31188BDE8104016
:1017000001F05EBA280800203008002044080020BC
:1017100038B5164CE36ADD68AA0711D1EB060BD584
:101720001021E26A2023D16083F31188104801F070
:1017300057F9002383F31188BDE8384001F040BA1F
:101740005A69202122F002025A6181F31188002196
:1017500004F1100001F0DCF804F11800012101F09F
:101760003FF9002383F31188D8E700BF2808002041
:1017700048080020000000000000000000000000F9
:1017800038B5164CE36A1D69AA0711D1EB060BD5D3
:101790001021E26A2023116183F31188104801F0BF
:1017A0001FF9002383F31188BDE8384001F008BA1F
:1017B0005A69202122F010025A6181F31188002118
:1017C00004F1100001F0A4F804F11800022101F066
:1017D00007F9002383F31188D8E700BF2808002009
:1017E0004808002000000000000000000000000089
:1017F00038B5154DEB6A5C6822075C6011D463074D
:101800000BD5EA6A2023916983F311880F480904F4
:1018100001F0E6F8002383F31188BDE8384001F0B9
:10182000CFB9032128461A6800F8281B22F00202CB
:101830001A60202383F31188002101F0D1F80023DE
:1018400083F31188DBE700BF280800204808002048
:1018500010B50E4C2046FFF713FD0D4B0B21132046
:10186000E362FFF7D5FD0B211420FFF7D1FD0B211B
:101870001520FFF7CDFD0B211620FFF7C9FDBDE8B0
:10188000104000220E201146FFF782BE28080020DB
:1018900000640040000000000000000000000000A4
:1018A000104B10B59842044615D00122E36A1A6025
:1018B0005A68D10707D40121082000F071FEE36ABD
:1018C0005A68D207F7D56268074950681268D8612C
:1018D0001A60596110BD054BDA6942F00072DA6195
:1018E000DB69E2E7280800205B8701000010024066
:1018F00003291AD8DFE801F0110C0702C36A9868BF
:10190000C0F300707047C36A9868C0F3C060704746
:10191000C36A9868C0F380607047C36A9B6813F01D
:10192000E05F14BF0120002070470020704700BF17
:10193000032933D8DFE801F0222A1E02C16A01F52B
:10194000D071107810B4C0F3001384064FEA43033B
:1019500020D5546843EAC40343F0040300F00F00A9
:1019600043F00103D2E9024248608C60CA6010BCB7
:101970000B607047C16A01F5C871E2E7C16A8B6804
:10198000C3F30163183301EB0311DAE7C16A01F510
:10199000C071D6E7948843EA4453DFE7704700BF3D
:1019A000012911D00AD3022906D1C36A186910F09F
:1019B000030018BF0120704700207047C36ADA682F
:1019C0009207F3D001207047C36AD86810F0030073
:1019D00018BF0120704700BF000000000000000099
:1019E00070B479BBC36AD968890744D02024D3F87E
:1019F000B001D3F8B411D3F8B861D3F8BC51C2E93F
:101A00000465DC60DC68A50703D15C6944F002046E
:101A10005C611379440864F30413840864F3451388
:101A200013719B062BD59368C00860F31C03936069
:101A30001379080A61F30303090C137110705180C4
:101A400070BC7047012920D00229F9D1C36A202433
:101A5000D3F8C001D3F8C411D3F8C861D3F8CC517E
:101A6000C2E904651C611C69A407D2D15C6944F019
:101A700010045C61CDE719698E07E8D1E0E71389AE
:101A8000400D60F30A031381D2E7C36AAEE700BFDB
:101A900030B4064C844201D030BC70470D4611462C
:101AA000284630BC1A46FFF773BD00BF2808002047
:101AB00008B5094B094A1968126801F00E010A427B
:101AC00005D0074A596013680BB150689847BDE8C4
:101AD000084001F075B800BF000002400800024055
:101AE0005808002000000000000000000000000076
:101AF0000B4B0C4A19681268090901F00E010A42E1
:101B00000BD0094810B584680A015A600CB1C0684E
:101B1000A047BDE8104001F053B801F051B800BF34
:101B2000000002401C000240580800200000000095
:101B30000B4B0C4A19681268090A01F00E010A429F
:101B40000BD0094810B504690A025A600CB140690B
:101B5000A047BDE8104001F033B801F031B800BF34
:101B60000000024030000240580800200000000041
:101B70000B4B0C4A19681268090B01F00E010A425E
:101B80000BD0094810B584690A035A600CB1C069CA
:101B9000A047BDE8104001F013B801F011B800BF34
:101BA00000000240440002405808002000000000ED
:101BB0000B4B0C4A19681268090C01F00E010A421D
:101BC0000BD0094810B5046A0A045A600CB1406A87
:101BD000A047BDE8104000F0F3BF00F0F1BF00BF28
:101BE0000000024058000240580800200000000099
:101BF0000B4B0C4A19681268090D01F00E010A42DC
:101C00000BD0094810B5846A0A055A600CB1C06A45
:101C1000A047BDE8104000F0D3BF00F0D1BF00BF27
:101C2000000002406C000240580800200000000044
:101C30000B4B0C4A19681268090E01F00E010A429A
:101C40000BD0094810B5046B0A065A600CB1406B02
:101C5000A047BDE8104000F0B3BF00F0B1BF00BF27
:101C600000000240800002405808002000000000F0
:101C700030B400240C4D23462146C5E900440B4AEC
:101C80000B480C4C01E052F8100C016044F8331082
:101C90000133072B02F11002F5D130BC4FF0FF32B7
:101CA000054B5A60704700BF90080020D4340008EC
:101CB0000800024058080020000002400000000018
:101CC000F8B50124204E90F80EC0356804FA0CF7E0
:101CD0003D422CD11D4C04EBCC0ECEF804306B06EB
:101CE00044F83C2005D11A4B5C6944F001045C6166
:101CF0005B690E244FF0000E4368D3F800C02CF04F
:101D00000F0CC3F800C090F80DC004FA0CFC046876
:101D1000C4F804C0C3F800E02AB1736882681342B3
:101D200007D03B4373603D4335600020F8BD20463B
:101D3000F8BD04460127C07BFFF76AFBD6E90053D4
:101D4000A27B9740EDE700BF9008002058080020D4
:101D50000010024000000000000000000000000031
:101D6000012370B5817B124C8B40DB43D4E9002505
:101D700086681A40324203EA0503C4E900230FD003
:101D800000200C4B03EBC10443F8310053066060A4
:101D900005D1094B5A6922F001025A615B6970BD95
:101DA0000546C07BFFF754FBA97B2268E8E700BF2C
:101DB0009008002058080020001002400000000099
:101DC000164A30B49169164B41F07D01916101686A
:101DD0009269D9608268134C5A60456812491D6047
:101DE000C568124AE560456903F580536560056979
:101DF00025608469CC60046A4C60C4690C60416AE7
:101E0000D160C16A5160816A1160026BDA60826BD5
:101E10005A60426B30BC1A60704700BF001002402D
:101E200000080140000C0140001001400014014076
:101E30004FF080431A69920701D400F0C1BE10B57B
:101E4000002420221C6182F3118800F031FA84F30F
:101E50001188BDE8104000F0B3BE00BF00000000D4
:101E600070B401244FF08043002248F69F464FF69D
:101E7000FF750B49C8692043C8610A48C9694168B0
:101E800041F4006141609E620821DD621C209A617C
:101E90005A63DA605A605C611C6070BCFFF7B8BAC4
:101EA00000100240002004E00000000000000000DC
:101EB0000E23002130B405696C68226822F00F02FD
:101EC00022606A7B44692D6803FA02F26A606568E1
:101ED0008268286820F00F002860657B2068AB408E
:101EE000436030BCD1601161516170470000000057
:101EF0000B0770B5044618D40E2302256269666884
:101F00005068016821F00F010160507B1168326850
:101F100083404B6065702AB1204690476378022B5E
:101F200000D070BD0023637070BD024800F0B8F9A6
:101F3000E2E700BF303500080000000000000000AC
:101F40000B0770B5044633D4A37862683BB9D368F5
:101F5000002B2CD0218B2046BDE8704018470E2165
:101F60000226206943681D6825F00F051D60457B2A
:101F70000068A94095684160A6703DB12046A84719
:101F8000A378B34213D1236962685B680025D268E5
:101F90000121AA4214BF22222022E068A570024338
:101FA0001834DC6059601A601A680A431A6070BD00
:101FB000014800F075F9C7E730350008000000005F
:101FC000F8B540F20F131B4EB468E76825686268E5
:101FD0001D421DD06FF48072736822601A69BAB115
:101FE000ABB213F0080F0CBF00211021D80748BF77
:101FF00041F00401980748BF41F00801580748BF65
:1020000041F02001D80548BF41F040010948904700
:102010006A060BD57B0609D56FF04002736817403E
:102020005B682260E7600BB102489847BDE8F84062
:1020300000F0C6BD9808002000000000000000006D
:1020400010B5074C2046FFF7A3F90821054B0648B9
:1020500003F11002C4E90201C4E9043210BD00BF5B
:1020600098080020103500080044004000000000DF
:10207000F8B503780446012B32D08568002320464A
:10208000A3706370FFF714FF61682D4B4A69002647
:10209000B3FBF2F3CA680127002A14BF22202020D4
:1020A000AB6023690A8BD5F800C05B68D5F804C023
:1020B0002E604E8B898B46F0400641F0C1012E61A7
:1020C0006961E16842F4045242F00C0218340143A1
:1020D000EA60DC605F6019601A683A431A60F8BD14
:1020E000184B984215D063681B8B03F4A053B3F5CB
:1020F000805F03D1E36843F4A063E3600022D4E986
:102100000413A568486859682B1D83608B6022837F
:10211000B4E703460C4A0C210069FFF7D1FD2346C2
:102120000A4A0C216069FFF7CBFD094B0C21DA69E3
:10213000262042F40032DA61DB69FFF769F9D2E761
:102140000051250298080020411F0008F11E0008D8
:10215000001002400000000000000000000000002D
:10216000F0B40E240569C0686B682F681E6840F0E3
:10217000820026F00F061E606D7BAC407C60DA604A
:10218000596018601A68F0BC42F001021A6070478A
:1021900043680E22DB6870B4002B0CBF2021222183
:1021A0000126046963681D6825F00F051D60657BC5
:1021B0002468AA406260C46800F11802214358688C
:1021C000DA605E6019601A6832431A6070BC70474A
:1021D000FFF79EB9000000000000000000000000B2
:1021E000704700BF00000000000000000000000079
:1021F000FEE700BF0000000000000000000000003B
:10220000F8B51E4D00F08CF900F0A2F800F028FCA3
:1022100000F07EFC00F09CFC28468022184900F06B
:102220004FFA01234FF6FF0C00241027202680F8D8
:102230002030144B144AD968C46101EA0C010A43E6
:102240000CF1604CDA60ACF60F3CDCF80C200F4966
:1022500042F0807245F8180CCCF80C200A6842F065
:1022600001020A60DF7783F8226084F3118862B686
:102270000748BDE8F84000F083BA00BFC00900205D
:10228000A035000800ED00E00003FA05001000E0B2
:102290007835000800000000000000000000000089
:1022A00072B6014BD862FEE79009002000000000E2
:1022B0002DE9F84FDFF890904FF080484D4600260A
:1022C00055F81C4FA368D8F82400B9F8282080B22C
:1022D000A0EB020A1FFA8AFA9A451FD320270CE0C6
:1022E00086F311882069D84787F31188D9F81C40F4
:1022F000A3689A45E7D3B9F8282021681A44A9426F
:10230000A9F82820D4F80CB04D60AAEB030AC9F84C
:102310001C10E660E4D1FEF79BFFE1E7D9F81C3022
:10232000AB420FD09A68A9F82800A2EB0A029A6083
:102330002389022B2CBFC0180230BDE8F84F80B2B1
:10234000FEF78EBFBDE8F88F900900200000000066
:102350004FF0FF300021044B03F11C025862198535
:10236000C3E90722704700BF900900200000000069
:10237000F8B54FF0804406462C4F606A0129C6E943
:10238000032380B2FD6907F11C032BD99D422DD098
:102390003A8DAB68801A84B2641816D32D68E41A9B
:1023A000AB68A34204D22D68E41AAB68A342FAD307
:1023B0004FF0FF326B68C6E900531E606E60B46078
:1023C000AB681C1BAC607A62F8BDA342E9D94FF63A
:1023D000FF70844294BF1019101880B2FEF740FFBE
:1023E000AB68DEE79D4213D00221D1E74FF6FF74C0
:1023F0008C4228BF0C46A4B238852044C7E9076642
:1024000080B2C6E90055B160BDE8F840FEF718BFDC
:1024100002231C4638852044C7E9076680B2C6E916
:102420000055B360BDE8F840FEF70ABF90090020F0
:102430001D4B30B4DA6982420FD0D0E9002100246C
:102440000A6002681C339A425160C46003D08168FC
:1024500093680B44936030BC7047184600241168A1
:1024600040F81C1F81424860D4601AD04FF080446D
:10247000956888681A8D28448860636A9B1A9BB2A5
:102480009842E8D9C11A012909D94FF6FF73984239
:1024900028BF184630BC104480B2FEF7E1BE981C3D
:1024A000F8E730BCFEF7D4BE900900200000000021
:1024B000202383F3118890F82030072B0ED8DFE813
:1024C00003F0280D0D2408040D08426A93680133B7
:1024D0009360D0E900231A600268536010B40022B0
:1024E0004FF0FF3481680D4B446280F820201B6858
:1024F0009A688A42FBD25A680021C0E90032106013
:10250000586081F3118810BC70470022436A1A603A
:10251000E4E7002383F31188704700BF900900208F
:102520000022034B9A60C3E90033C3E904337047C8
:1025300090090020000000000000000000000000E2
:1025400001460022074B806881F820201B689A68AA
:102550008242FBD25A680846C1E9003211605960D4
:10256000704700BF9009002000000000000000003C
:1025700030B40125074B99691A6881F82000146866
:102580001046636082F820501C6030BC9A61FDF7F1
:1025900057BE00BF900900200000000000000000AE
:1025A00030B54B1C87B012D005460C4C01A8A3696E
:1025B0000B4AFFF7DDFE2846FFF7DAFF049B13B155
:1025C00001A8FFF735FFA369586A07B030BDFFF7D0
:1025D000CFFF024CA369586A07B030BD90090020B4
:1025E000B12400080000000000000000000000000E
:1025F000164B70B49E69856804464162B068854296
:102600000DD8002284F820201B689A689542FBD9D7
:102610005A68C4E9003214605C6070BC70470021E5
:102620001A4686F82010126891688842FBD901206A
:102630005168C6E900210E60566084F820003146DA
:1026400020469C6170BCFDF7FBBD00BF90090020D7
:10265000044B1A689B6990689B68984294BF00205D
:1026600001207047900900200000000000000000D9
:1026700070B40E4A0126002513461068946901685B
:102680004A6080F82060116084F82050A168906151
:102690001B689A689142FBD35A682146C4E900320C
:1026A00014605C6070BCFDF7CBBD00BF90090020DA
:1026B000FFF7DEBF00000000000000000000000087
:1026C000F0B4012700264FF0020C0C4C82606569C3
:1026D000C263C0E9055100F12C0200F12801046138
:1026E00080F82270C0E90D66A0F820C02861606102
:1026F000C0E90A12F0BC0263704700BF90090020D5
:10270000F0B4D0E90163002102250124174A43F8FF
:102710002C6CD0E9047643E91B760668C06803F8A0
:10272000285C03F8271C03F8264C114D546943F824
:10273000400C43F80C0CA3F16C0043F83C0C43F83C
:102740004C5CA3F1480043E90511A3F12005A3F176
:102750001C0143F8306C43E90E242061506143E9C9
:102760000851F0BC43F8181C704700BF90090020C6
:1027700051020008000000000000000000000000FE
:1027800010B5202383F31188FFF7BAFF0021044618
:10279000FFF72EFF002383F31188204610BD00BFF2
:1027A000F8B5069F202484F311884FF0020E4FF0F5
:1027B000010C002648394418134D44E90937A2603A
:1027C000E263124BA4F12402E260E0616A691048FE
:1027D00044F8043C04F1280104F12C03A061C4E98D
:1027E0000452A4F820E084F822C0C4E90D66204613
:1027F0001461C4E90A13236331466C61FFF7F8FEE4
:1028000086F311882046F8BD900900205102000887
:1028100098350008000000000000000000000000E3
:1028200038B5104B9C69A36A04F12805AB4260627D
:1028300007D01A681846A262FFF782FEA36AAB426D
:10284000F7D194F8223043B994F821309B0704D192
:10285000D4E904231A61226953610F20BDE838408E
:10286000FFF786BE90090020000000000000000075
:10287000202383F31188FFF7D3BF00BF00000000BF
:1028800008B50146202383F311880820FFF788FE4E
:10289000002383F3118808BD000000000000000041
:1028A000054B02469B6921B1036003205A62FFF782
:1028B00077BE4FF0FF307047900900200000000005
:1028C000036843B110B402460024184614605962EC
:1028D00010BCFFF735BE704700000000000000008C
:1028E00061B10246074B10B49B6944680420C3E9F8
:1028F00000242360536010BCFFF752BE4FF0FF303E
:10290000704700BF90090020000000000000000098
:1029100038B5036898420BD004460D461A6818462D
:10292000226054605D62FFF70BFE23689C42F5D184
:1029300038BD00BF000000000000000000000000E3
:102940000023C0E900008360704700BF0000000062
:1029500070B4202484F311880024064D0668AD6904
:102960000E600160C1E90152C1E9034384F311889B
:1029700070BC7047900900200000000000000000BB
:10298000202383F31188024602E08B4207D01A46C7
:1029900013688342F9D1002383F3118870470B68D1
:1029A0001360002383F31188704700BF000000000C
:1029B0000346426B90F8200011430A2859630AD05D
:1029C0000B2800D070475A6A8A43FBD10022184670
:1029D0005A62FFF7B5BD5A6A1142F7D1704700BF7E
:1029E00070B50468A0420FD006460D46E3682B433D
:1029F000E36015B12269134203D0D4E90101FFF766
:102A0000D7FF2468A642F1D170BD00BF00000000CE
:102A1000104B70B59E69202383F31188736B13EA02
:102A200000050ED119B985F31188284670BD706272
:102A300004460A20FFF7B4FD0028F4DB736B03EAB9
:102A4000040523EA05037363002383F311882846F2
:102A500070BD00BF900900200000000000000000D1
:102A6000024B0349034AC3E900127047040A0020DD
:102A700000140020005000200000000000000000B2
:102A800030B40B4C013825684318A81801380844A5
:102A9000494208401940636801448B4204D38D4287
:102AA00002D8216030BC7047002030BC704700BFA6
:102AB000040A0020000000000000000000000000E8
:102AC00070B4202383F311880D4C4D1E26684319E2
:102AD000B018494228440B400840626803449342BE
:102AE00007D89E4205D82360002383F3118870BC69
:102AF00070470020002383F3118870BC704700BF2B
:102B0000040A002000000000000000000000000097
:102B10000022044B044903F10C00C3E901221960AF
:102B2000FFF70EBF0C0A0020C12A000800000000B9
:102B300010B40024C0E901120460C36010BC7047E7
:102B40000022FFF79DBF00BF000000000000000052
:102B500070B5114C114D2046FFF7F2FE04F110063E
:102B60002B4604F11400042214212661FFF7E0FF34
:102B700004F124062B46042204F1280504F12C005C
:102B80001C21C4E90965FFF7D3FF04F13C0204F1FD
:102B90004003C4E90F2370BD280A0020412B000820
:102BA000EFF30983203383F30988002383F311882B
:102BB000704700BF0000000000000000000000009F
:102BC000202383F311880F4B5B6813F4006302D159
:102BD00083F31188704710B5EFF309844FF08072CA
:102BE000A4F1200344F8042C83F30988FFF730FD97
:102BF00018B1054B44F8083C10BD044B44F8083CA0
:102C000010BD00BF00ED00E0610200086402000892
:102C10002DE9F04184B000F0DBFA4FF07E54204DF6
:102C2000204A23460094029201951F4A1F4980467C
:102C30001F4800F065FA1F4B0195009402931E4A4D
:102C40001E4B1F491F4800F05BFA1F4F1F4E204DBF
:102C50001C4C03E018D10220FFF712FE3346CDF8DA
:102C600000802A462146124800F022FB3B68DB88A0
:102C7000B3F5167FEED200234FF4007000931A468E
:102C8000194600F0C5F9E6E7FEF740FA002301B265
:102C900000931A464FF4007000F0BAF9DBE700BF6A
:102CA0000060EA4600401C466F12833A0000204252
:102CB000380D002000409C4652499D3A295C8F3DCA
:102CC0000AD7233C680D0020980D00200008002042
:102CD0006C0A00200000000000000000000000005E
:102CE00000B583B0FEF78CFAFFF78AFA00F0C0F85F
:102CF00000F0C6F900F0B4F800220A4B00924FF43D
:102D0000327118608022084B0848FFF749FD084CD3
:102D1000E3684FF47A7083F48073E360FFF7B0FDEB
:102D2000F6E700BF980D0020112C0008700A002063
:102D3000000801400000000000000000000000004A
:102D40002DE9F047374F384ABB69384E9A61DFF8B2
:102D5000E090DFF8E88004E01A7852BB03221A7092
:102D6000BB6993F8214004F0040404F0FF05F4B9B2
:102D70003046FEF735FB2E4A12213046FEF720FB87
:102D80004FF0200A8AF311884FF0FF314046FFF7D9
:102D900087FD85F31188274B0028DDD04FF00422F2
:102DA000254B2449C3E900221D810C70D8E7BDE8FA
:102DB000F0878AF3118899F8024099F80310A50961
:102DC00099F8013099F8052099F804E045EA810561
:102DD00099F800106401DFF860C045EA8E2544EAE6
:102DE000D30441EA0321D30143EA5E031209C5F388
:102DF0000A05C3F30A03C4F30A04C1F30A01ACF8D9
:102E00000450951002F00302ACF80630ACF8024012
:102E1000ACF800108CF808508CF8092080F3118869
:102E20009EE700BF90090020B835000898080020F0
:102E3000A80D0020A60D00209C0D0020BC0D002038
:102E400008B5202383F3118800210348FFF738FDDC
:102E5000002383F3118808BDBC0D00200000000092
:102E6000004870479C0D002000000000000000009A
:102E700030B54FF0042200240B4B0C4D83B0C3E956
:102E800000221C8128460A49FEF78AFA6869FEF783
:102E900067FF0094074B87224FF432710648FFF713
:102EA0007FFC03B030BD00BF9C0D002098080020BF
:102EB00004080020412D0008C00D00200000000083
:102EC00070B504460088202380B283F31188012561
:102ED0008E7C0B7CCA7C25754D7C42EA062245EA35
:102EE00003250E7D4B7D897D43EA06231BB212B27A
:102EF00025806280A380A17123881B1AB3F5805FAF
:102F000017DC2388181A10F5805F02DAA3680133F2
:102F1000A360A268238803EB4233E360E068FDF717
:102F2000DBFE0649FDF72CFF0023206183F31188A7
:102F300070BDA368013BA360EBE700BFDB0F493A1C
:102F40002DE9F043274D284AAB698DB000F11809EF
:102F50009A61044601A948464FF0FF330122FFF76A
:102F6000F7FC224EA6F11808A6F13007AB6993F8DA
:102F700021305B072FD4C8214FF0FF30FFF748FD09
:102F80000028F3D0002306AA19462046FEF7D0F900
:102F90000028EBD16FF40072BDF82030C3F30A03B0
:102FA0001344032BEED8DFE803F0110C070206A947
:102FB0003046FFF785FFE5E706A94046FFF780FFAB
:102FC000E0E706A93846FFF77BFFDBE706A90848DC
:102FD000FFF776FFD6E701A94846FFF7D1FC0DB011
:102FE000BDE8F08390090020CC350008D010002007
:102FF0008810002000000000000000000000000019
:103000000048704788100020000000000000000009
:1030100070B5082684B09DF80040019D04F0CF04EF
:1030200066F3030460F31C058DF800400195BDF9BB
:103030002000202484F3118841FA06F615121C1290
:103040008DF8091001128DF80E108DF808608DF8BA
:103050000B208DF80A508DF80D308DF80C408DF84E
:103060000F00002181F31188C8236A460248FEF749
:1030700037F904B070BD00BF280800200000000030
:1030800070B56022002182B0174800F08FF900224D
:10309000164D1646294602EB420405EB8400837860
:1030A00025F8242003F0FE0343F0020301326FF3FE
:1030B00082031C2A8370C1E9016601F10C01EAD187
:1030C0000B4C0A4B20460E21FEF7E2FC2046094934
:1030D000FEF7F6F80094084B87224FF4E471074896
:1030E000FFF75EFB02B070BD88100020B012002018
:1030F00028080020DC350008412F0008E8100020D7
:103100004260002230B4029D039C01600499C560B6
:1031100084628360C1624262026142618261C26113
:10312000026230BC704700BF0000000000000000D9
:103130002DE9F8430B46044611461846FDF716FDE7
:103140002168E0610646FDF71BFE6168206180464C
:103150003046FDF715FE6169FDF70AFD216A8146DB
:103160003046FDF703FDA168FDF70AFEE168FDF7B3
:10317000BBFEE56A0746A06129464846FDF7BCFF4D
:1031800030B905F1004548462946FDF797FFC0B123
:10319000294665614046FDF7EBFC3946FDF7E8FC42
:1031A000A56A266229460746FDF7A6FF30B905F154
:1031B000004538462946FDF781FF20B16562BDE82C
:1031C000F8834D46E4E73D466562BDE8F88300BFFD
:1031D0002DE9F04F0FF2B009D9E9008983B0FFF76C
:1031E0000FFF002306691A4600932B4982464FF4CD
:1031F0000070FFF70DFF4FF47A60FFF741FBDFF837
:10320000A0B000E02E460024DAF8105023462246F3
:1032100059464FF400700094FFF7FAFE40F6B830BC
:10322000FFF72EFB31462846FDF7A0FCFDF780F99D
:1032300042464B4606460F46FDF744FC0028E1D0C7
:1032400013A3D3E9002330463946FDF759FC002883
:10325000D8D000942346224621464FF40070FFF751
:10326000D7FE0F240D4DEB68C82083F48073EB600C
:10327000FFF706FB013CF6D1DAF8100003B0BDE819
:10328000F08F00BFAFF300809A9999999999B93F4F
:103290009A9999999999B9BFDAFDFFFF0008014001
:1032A000D4FEFFFF0000000000000000000000004E
:1032B0002DE9F84391460E4698460446FFF7A0FED6
:1032C0000746FFF7CDFD427A013A022A47D8324B32
:1032D00053F822502846FDF7FFFC0146D8F800308D
:1032E000AB4204D00023C9F80030C8F80050089859
:1032F000FDF73EFC3D6901462A462046FFF718FFD0
:10330000E56926492846FDF7D9FE38B12846244903
:10331000FDF7F2FE10B1D9F800301BB3B7F9020087
:10332000FDF7DAFCE1680546606AFDF7DDFDFDF7B3
:10333000FFF815A3D3E90023FDF752F914A3D3E94D
:103340000023FDF777FAFDF7E5FBFDF7C5FC2A46FC
:1033500001463046FFF7ECFE706ABDE8F8830A25A7
:103360001049BBE74FF004080F4D4FF4C860C5F893
:103370001080FFF785FA0123C5F81480C9F80030E2
:10338000CCE700BFAFF30080000000000070B74042
:1033900000000000FA211940E43500080000A040B8
:1033A0000000A0C00000204100080140F0B48607E2
:1033B00043D0541E002A3ED0CAB2034602E014F1A4
:1033C000FF3438D303F8012B9D07F8D1032C2BD9F8
:1033D000CDB245EA05250F2C45EA054516D9A4F1DD
:1033E00010073F0903F1200606EB071603F1100250
:1033F00042E9045542E902551032B242F8D104F0D4
:103400000F040137032C03EB07130DD91E46224688
:10341000043A032A46F8045BFAD8221F22F003027A
:103420000432134404F003042CB1C9B21C4403F861
:10343000011B9C42FBD1F0BC704714460346C5E714
:10344000143600080014002000140020001400208E
:10345000143600080000000000000000000000001A
:10346000143600080000000000000000000000000A
:1034700014360008000000000000000000000000FA
:1034800014360008000000000000000000000000EA
:1034900014360008000000000000000000000000DA
:1034A00014360008000000000000000000000000CA
:1034B00014360008000000000000000000000000BA
:1034C0000000024008000240010000000000000B64
:1034D000000002401C000240020000000004010C39
:1034E0000000024030000240040000000008020D0D
:1034F000000002404400024008000000000C030EDF
:103500000000024058000240100000000010040FAC
:10351000000002406C000240200000000014051072
:103520000000024080000240400000000018061128
:10353000444D41206661696C75726500FFFFFFFFB5
:1035400088888888B5488B48FFFFFFFF888888886F
:1035500088FF8888FFFFFFFF888888888888888898
:10356000FFFFFFFF8888888888888888FFFFFFFF23
:10357000888888888888888890350008B80800205E
:103580009009002001000000F12100080000000067
:1035900069646C65000000006E6F6E616D6500000F
:1035A0006D61696E00160030040244080C10141896
:1035B0001C20212200000000756172742064627575
:1035C00073207265636569766572000063616E20C1
:1035D0007265636569766572000000006400000032
:1035E0000200180000000000320000001900000076
:1035F0000A0000000000000000000000412E00084A
:103600000000000000000000A0860100001420005F
:0436100000000000B6
:0400000508000239B4
:00000001FF
